{
  "contractName": "TodoList",
  "abi": [
    {
      "constant": true,
      "inputs": [
        {
          "name": "",
          "type": "uint256"
        }
      ],
      "name": "tasks",
      "outputs": [
        {
          "name": "id",
          "type": "uint256"
        },
        {
          "name": "content",
          "type": "string"
        },
        {
          "name": "completed",
          "type": "bool"
        }
      ],
      "payable": false,
      "stateMutability": "view",
      "type": "function",
      "signature": "0x8d977672"
    },
    {
      "constant": true,
      "inputs": [],
      "name": "taskCount",
      "outputs": [
        {
          "name": "",
          "type": "uint256"
        }
      ],
      "payable": false,
      "stateMutability": "view",
      "type": "function",
      "signature": "0xb6cb58a5"
    },
    {
      "inputs": [],
      "payable": false,
      "stateMutability": "nonpayable",
      "type": "constructor",
      "signature": "constructor"
    },
    {
      "constant": false,
      "inputs": [
        {
          "name": "_content",
          "type": "string"
        }
      ],
      "name": "createTask",
      "outputs": [],
      "payable": false,
      "stateMutability": "nonpayable",
      "type": "function",
      "signature": "0x111002aa"
    },
    {
      "constant": false,
      "inputs": [
        {
          "name": "_id",
          "type": "uint256"
        }
      ],
      "name": "toggleCompleted",
      "outputs": [],
      "payable": false,
      "stateMutability": "nonpayable",
      "type": "function",
      "signature": "0x455f5024"
    }
  ],
  "bytecode": "0x60806040526000805534801561001457600080fd5b5060408051808201909152601381527f4c6f6c2074686973207461736b20776f726b7300000000000000000000000000602082015261005b90640100000000610060810204565b610167565b60008054600190810180835560408051606081018252828152602080820187815282840187905293865284815291909420845181559151805192936100ad939085019291909101906100cc565b50604091909101516002909101805460ff191691151591909117905550565b828054600181600116156101000203166002900490600052602060002090601f016020900481019282601f1061010d57805160ff191683800117855561013a565b8280016001018555821561013a579182015b8281111561013a57825182559160200191906001019061011f565b5061014692915061014a565b5090565b61016491905b808211156101465760008155600101610150565b90565b61054e806101766000396000f3fe6080604052600436106100615763ffffffff7c0100000000000000000000000000000000000000000000000000000000600035041663111002aa8114610066578063455f50241461011b5780638d97767214610145578063b6cb58a5146101f9575b600080fd5b34801561007257600080fd5b506101196004803603602081101561008957600080fd5b8101906020810181356401000000008111156100a457600080fd5b8201836020820111156100b657600080fd5b803590602001918460018302840111640100000000831117156100d857600080fd5b91908080601f016020809104026020016040519081016040528093929190818152602001838380828437600092019190915250929550610220945050505050565b005b34801561012757600080fd5b506101196004803603602081101561013e57600080fd5b503561028c565b34801561015157600080fd5b5061016f6004803603602081101561016857600080fd5b50356103ae565b604051808481526020018060200183151515158152602001828103825284818151815260200191508051906020019080838360005b838110156101bc5781810151838201526020016101a4565b50505050905090810190601f1680156101e95780820380516001836020036101000a031916815260200191505b5094505050505060405180910390f35b34801561020557600080fd5b5061020e61045d565b60408051918252519081900360200190f35b600080546001908101808355604080516060810182528281526020808201878152828401879052938652848152919094208451815591518051929361026d93908501929190910190610463565b50604091909101516002909101805460ff191691151591909117905550565b6102946104e1565b60008281526001602081815260409283902083516060810185528154815281840180548651600296821615610100026000190190911695909504601f8101859004850286018501909652858552909491938584019390929083018282801561033d5780601f106103125761010080835404028352916020019161033d565b820191906000526020600020905b81548152906001019060200180831161032057829003601f168201915b50505091835250506002919091015460ff1615156020918201526040808301805115905260008581526001808452919020835181558383015180519495508594919361038e93850192910190610463565b50604091909101516002909101805460ff19169115159190911790555050565b600160208181526000928352604092839020805481840180548651600296821615610100026000190190911695909504601f8101859004850286018501909652858552909491939290919083018282801561044a5780601f1061041f5761010080835404028352916020019161044a565b820191906000526020600020905b81548152906001019060200180831161042d57829003601f168201915b5050506002909301549192505060ff1683565b60005481565b828054600181600116156101000203166002900490600052602060002090601f016020900481019282601f106104a457805160ff19168380011785556104d1565b828001600101855582156104d1579182015b828111156104d15782518255916020019190600101906104b6565b506104dd929150610505565b5090565b60606040519081016040528060008152602001606081526020016000151581525090565b61051f91905b808211156104dd576000815560010161050b565b9056fea165627a7a72305820b848e8a561b947beb99b5d542497fe450f158c133275592716b616ca81397c240029",
  "source": "pragma solidity ^0.5.0;\r\n\r\n\r\ncontract TodoList{\r\n    uint public taskCount = 0;\r\n\r\n    struct Task {\r\n        uint id;\r\n        string content;\r\n        bool completed;\r\n    }\r\n\r\n    mapping(uint => Task) public tasks;\r\n\r\n    constructor() public {\r\n        createTask(\"Lol this task works\");\r\n    }\r\n    function createTask(string memory _content) public {\r\n        taskCount++;\r\n        tasks[taskCount] = Task(taskCount, _content, false); \r\n\r\n    }\r\n    function toggleCompleted(uint _id) public {\r\n        Task memory _task = tasks[_id];\r\n        _task.completed = !_task.completed;\r\n        tasks[_id] = _task;\r\n    }\r\n\r\n}",
  "sourcePath": "C:/Users/shriv/Desktop/User_Anirudh/Blockchain_Stuff/eth-todo-list/contracts/TodoList.sol",
  "compiler": {
    "name": "solc",
    "version": "0.5.0+commit.1d4f565a.Emscripten.clang"
  },
  "schemaVersion": "3.0.1",
  "updatedAt": "2022-05-08T11:45:01.440Z",
  "devdoc": {
    "methods": {}
  },
  "userdoc": {
    "methods": {}
  }
}